:100000000C943C000C9470000C94A3000C94D6004B
:100010000C9409010C943C010C9464000C94930220
:100020000C94B7020C94DB020C9439020C94F1018D
:100030000C9415020C945D020C9472010C949601C0
:100040000C94BA010C9464000C9445030C94640065
:100050000C9483030C9464000C9464000C9464006E
:100060000C9464000C9464009400C700FA002D0105
:100070006001DE018102FF0211241FBECFEFD8E034
:10008000DEBFCDBF11E0A0E0B1E0E2EAF7E002C0E0
:1000900005900D92AC31B107D9F721E0ACE1B1E0A8
:1000A00001C01D92A334B207E1F710E0CCE3D0E029
:1000B00004C02197FE010E94C903C433D107C9F7C8
:1000C0000E941F030C94CF030C940000E82FF92F1B
:1000D000118280818E7F8083138212820895089519
:1000E0001F920F920FB60F9211242F933F934F93AD
:1000F0005F936F937F938F939F93AF93BF93EF9390
:10010000FF930E946F00FF91EF91BF91AF919F917C
:100110008F917F916F915F914F913F912F910F90B0
:100120000FBE0F901F9018958CE191E00E94660021
:100130000895E82FF92F118280818E7F80831382AA
:100140001282089508951F920F920FB60F921124F4
:100150002F933F934F935F936F937F938F939F93CF
:10016000AF93BF93EF93FF930E94A200FF91EF9193
:10017000BF91AF919F918F917F916F915F914F91BF
:100180003F912F910F900FBE0F901F90189580E216
:1001900091E00E9499000895E82FF92F1182808143
:1001A0008E7F808313821282089508951F920F928A
:1001B0000FB60F9211242F933F934F935F936F933A
:1001C0007F938F939F93AF93BF93EF93FF930E947F
:1001D000D500FF91EF91BF91AF919F918F917F914A
:1001E0006F915F914F913F912F910F900FBE0F90A4
:1001F0001F90189584E291E00E94CC000895E82FAA
:10020000F92F118280818E7F80831382128208955C
:1002100008951F920F920FB60F9211242F933F93C0
:100220004F935F936F937F938F939F93AF93BF93FE
:10023000EF93FF930E940801FF91EF91BF91AF915F
:100240009F918F917F916F915F914F913F912F91EE
:100250000F900FBE0F901F90189588E291E00E94BA
:10026000FF000895E82FF92F118280818E7F80830F
:1002700013821282089508951F920F920FB60F9263
:1002800011242F933F934F935F936F937F938F939B
:100290009F93AF93BF93EF93FF930E943B01FF9116
:1002A000EF91BF91AF919F918F917F916F915F91EE
:1002B0004F913F912F910F900FBE0F901F90189567
:1002C0008CE291E00E9432010895E82FF92F11820B
:1002D000128280818E7F8083148213820895089514
:1002E000089508951F920F920FB60F9211242F9325
:1002F0003F934F935F936F937F938F939F93AF93AE
:10030000BF93EF93FF930E946F01FF91EF91BF9115
:10031000AF919F918F917F916F915F914F913F919D
:100320002F910F900FBE0F901F9018951F920F9254
:100330000FB60F9211242F933F934F935F936F93B8
:100340007F938F939F93AF93BF93EF93FF930E94FD
:100350007001FF91EF91BF91AF919F918F917F912C
:100360006F915F914F913F912F910F900FBE0F9022
:100370001F9018951F920F920FB60F9211242F9372
:100380003F934F935F936F937F938F939F93AF931D
:10039000BF93EF93FF930E947101FF91EF91BF9183
:1003A000AF919F918F917F916F915F914F913F910D
:1003B0002F910F900FBE0F901F90189580E391E042
:1003C0000E9465010895E82FF92F11821282808121
:1003D0008E7F80831482138208950895089508956E
:1003E00008951F920F920FB60F9211242F933F93EF
:1003F0004F935F936F937F938F939F93AF93BF932D
:10040000EF93FF930E94ED01FF91EF91BF91AF91A8
:100410009F918F917F916F915F914F913F912F911C
:100420000F900FBE0F901F9018951F920F920FB64E
:100430000F9211242F933F934F935F936F937F936A
:100440008F939F93AF93BF93EF93FF930E94EE011F
:10045000FF91EF91BF91AF919F918F917F916F919C
:100460005F914F913F912F910F900FBE0F901F9072
:1004700018951F920F920FB60F9211242F933F934E
:100480004F935F936F937F938F939F93AF93BF939C
:10049000EF93FF930E94EF01FF91EF91BF91AF9116
:1004A0009F918F917F916F915F914F913F912F918C
:1004B0000F900FBE0F901F9018951F920F920FB6BE
:1004C0000F9211242F933F934F935F936F937F93DA
:1004D0008F939F93AF93BF93EF93FF930E94F0018D
:1004E000FF91EF91BF91AF919F918F917F916F910C
:1004F0005F914F913F912F910F900FBE0F901F90E2
:10050000189585E391E00E94E3010895E82FF92F03
:100510001182128280818E7F8083148213820895DB
:100520000895089508951F920F920FB60F92112407
:100530002F933F934F935F936F937F938F939F93EB
:10054000AF93BF93EF93FF930E949002FF91EF91BF
:10055000BF91AF919F918F917F916F915F914F91DB
:100560003F912F910F900FBE0F901F9018951F92E3
:100570000F920FB60F9211242F933F934F935F93D7
:100580006F937F938F939F93AF93BF93EF93FF935B
:100590000E949102FF91EF91BF91AF919F918F9136
:1005A0007F916F915F914F913F912F910F900FBE6F
:1005B0000F901F9018951F920F920FB60F92112453
:1005C0002F933F934F935F936F937F938F939F935B
:1005D000AF93BF93EF93FF930E949202FF91EF912D
:1005E000BF91AF919F918F917F916F915F914F914B
:1005F0003F912F910F900FBE0F901F9018958AE397
:1006000091E00E9486020895E82FF92F80818823C7
:1006100039F03196A6ECB0E08C9381918111FCCF3A
:100620000895882331F0E1ECF0E0808180688083D8
:100630000895E1ECF0E080818F7780830895259A1A
:100640002D9A1092C50087E68093C4001092C000D6
:1006500088E18093C10086E08093C20080E091E051
:100660000E94040381E00E9411037894FFCF882345
:1006700031F0E1ECF0E08081806480830895E1EC6A
:10068000F0E080818F7B808308951F920F920FB6D8
:100690000F9211242F933F934F935F936F937F9308
:1006A0008F939F93AF93BF93EF93FF938091C60077
:1006B0008C3499F08434E1F0FF91EF91BF91AF91C8
:1006C0009F918F917F916F915F914F913F912F916A
:1006D0000F900FBE0F901F90189581E00E94370376
:1006E00081E090E09093400180933F012D9AE4CF08
:1006F00081E00E94370381E090E090934201809373
:1007000041012D98D9CF1F920F920FB60F9211244D
:100710002F933F934F935F936F937F938F939F9309
:10072000AF93BF93EF93FF9380913F01909140016E
:10073000892BB9F48091410190914201892BE9F410
:10074000FF91EF91BF91AF919F918F917F916F91A9
:100750005F914F913F912F910F900FBE0F901F907F
:10076000189581E191E00E940403109240011092DB
:100770003F0180E00E943703DDCF86E191E00E94D7
:100780000403109242011092410180E00E9437035D
:10079000D7CFEE0FFF1F0590F491E02D0994F89448
:0207A000FFCF89
:1007A200456E7669652063617261637465720D0AD4
:0C07B200006F6E0D0A006F660D0A00005B
:00000001FF
