:100000000C9446000C94B7000C94EA000C941D016B
:100010000C9450010C9483010C946E000C94DA0241
:100020000C94FE020C9422030C9480020C9438026F
:100030000C945C020C94A4020C94B9010C94DD01A4
:100040000C9401020C946E000C941D080C9465082D
:100050000C9441080C9484000C946E000C946E0077
:100060000C94B1050C946E006364696E6F707375C7
:1000700078585B00A800DB000E0141017401A70164
:100080002502C8024603D7058908E10811241FBECE
:10009000CFEFD8E0DEBFCDBF11E0A0E0B1E0E0EFF0
:1000A000F0E202C005900D92AC37B107D9F721E01C
:1000B000ACE7B1E001C01D92A63FB207E1F710E046
:1000C000C6E4D0E004C02197FE010E948B09CA3328
:1000D000D107C9F70E942D090C9424100C9400003C
:1000E000E82FF92F158280858E7F808780818C7F15
:1000F0008B7F80838FE090E09783868313821482C6
:1001000012821182089508951F920F920FB60F92D6
:1001100011242F933F934F935F936F937F938F930C
:100120009F93AF93BF93EF93FF930E948300FF9140
:10013000EF91BF91AF919F918F917F916F915F915F
:100140004F913F912F910F900FBE0F901F901895D8
:1001500082E891E00E9470000895E82FF92F118243
:1001600080818E7F808313821282089508951F926A
:100170000F920FB60F9211242F933F934F935F93DB
:100180006F937F938F939F93AF93BF93EF93FF935F
:100190000E94B600FF91EF91BF91AF919F918F9117
:1001A0007F916F915F914F913F912F910F900FBE73
:1001B0000F901F9018958BE891E00E94AD00089574
:1001C000E82FF92F118280818E7F80831382128223
:1001D000089508951F920F920FB60F9211242F9336
:1001E0003F934F935F936F937F938F939F93AF93BF
:1001F000BF93EF93FF930E94E900FF91EF91BF91AE
:10020000AF919F918F917F916F915F914F913F91AE
:100210002F910F900FBE0F901F9018958FE891E0CF
:100220000E94E0000895E82FF92F118280818E7FCF
:10023000808313821282089508951F920F920FB641
:100240000F9211242F933F934F935F936F937F935C
:100250008F939F93AF93BF93EF93FF930E941C01E3
:10026000FF91EF91BF91AF919F918F917F916F918E
:100270005F914F913F912F910F900FBE0F901F9064
:10028000189583E991E00E9413010895E82FF92F52
:10029000118280818E7F8083138212820895089557
:1002A0001F920F920FB60F9211242F933F934F93EB
:1002B0005F936F937F938F939F93AF93BF93EF93CE
:1002C000FF930E944F01FF91EF91BF91AF919F91DA
:1002D0008F917F916F915F914F913F912F910F90EF
:1002E0000FBE0F901F90189587E991E00E9446017C
:1002F0000895E82FF92F118280818E7F80831382E9
:100300001282089508951F920F920FB60F92112432
:100310002F933F934F935F936F937F938F939F930D
:10032000AF93BF93EF93FF930E948201FF91EF91F0
:10033000BF91AF919F918F917F916F915F914F91FD
:100340003F912F910F900FBE0F901F9018958BE942
:1003500091E00E9479010895E82FF92F118212820D
:1003600080818E7F8083148213820895089508957A
:1003700008951F920F920FB60F9211242F933F935F
:100380004F935F936F937F938F939F93AF93BF939D
:10039000EF93FF930E94B601FF91EF91BF91AF9150
:1003A0009F918F917F916F915F914F913F912F918D
:1003B0000F900FBE0F901F9018951F920F920FB6BF
:1003C0000F9211242F933F934F935F936F937F93DB
:1003D0008F939F93AF93BF93EF93FF930E94B701C7
:1003E000FF91EF91BF91AF919F918F917F916F910D
:1003F0005F914F913F912F910F900FBE0F901F90E3
:1004000018951F920F920FB60F9211242F933F93BE
:100410004F935F936F937F938F939F93AF93BF930C
:10042000EF93FF930E94B801FF91EF91BF91AF91BD
:100430009F918F917F916F915F914F913F912F91FC
:100440000F900FBE0F901F9018958FE991E00E94BA
:10045000AC010895E82FF92F1182128280818E7FDE
:10046000808314821382089508950895089508954D
:100470001F920F920FB60F9211242F933F934F9319
:100480005F936F937F938F939F93AF93BF93EF93FC
:10049000FF930E943402FF91EF91BF91AF919F9122
:1004A0008F917F916F915F914F913F912F910F901D
:1004B0000FBE0F901F9018951F920F920FB60F92BC
:1004C00011242F933F934F935F936F937F938F9359
:1004D0009F93AF93BF93EF93FF930E943502FF91D9
:1004E000EF91BF91AF919F918F917F916F915F91AC
:1004F0004F913F912F910F900FBE0F901F90189525
:100500001F920F920FB60F9211242F933F934F9388
:100510005F936F937F938F939F93AF93BF93EF936B
:10052000FF930E943602FF91EF91BF91AF919F918F
:100530008F917F916F915F914F913F912F910F908C
:100540000FBE0F901F9018951F920F920FB60F922B
:1005500011242F933F934F935F936F937F938F93C8
:100560009F93AF93BF93EF93FF930E943702FF9146
:10057000EF91BF91AF919F918F917F916F915F911B
:100580004F913F912F910F900FBE0F901F90189594
:1005900084EA91E00E942A020895E82FF92F11823F
:1005A000128280818E7F8083148213820895089541
:1005B000089508951F920F920FB60F9211242F9352
:1005C0003F934F935F936F937F938F939F93AF93DB
:1005D000BF93EF93FF930E94D702FF91EF91BF91DA
:1005E000AF919F918F917F916F915F914F913F91CB
:1005F0002F910F900FBE0F901F9018951F920F9282
:100600000FB60F9211242F933F934F935F936F93E5
:100610007F938F939F93AF93BF93EF93FF930E942A
:10062000D802FF91EF91BF91AF919F918F917F91F0
:100630006F915F914F913F912F910F900FBE0F904F
:100640001F9018951F920F920FB60F9211242F939F
:100650003F934F935F936F937F938F939F93AF934A
:10066000BF93EF93FF930E94D902FF91EF91BF9147
:10067000AF919F918F917F916F915F914F913F913A
:100680002F910F900FBE0F901F90189589EA91E05F
:100690000E94CD02089527E030E0FC0133832283DD
:1006A00080E0089527E030E0FC013383228380E07E
:1006B000089527E030E0FC013383228380E0089531
:1006C000E82FF92F862F8295880F807E95859F7160
:1006D000892B858766956695669586858078737083
:1006E0007295770F707E682B672B6687868140FB3B
:1006F00080F986838481816084831086178281E0FB
:10070000089585E090E00895FC0187819085089523
:10071000E82FF92F84E091E091838083128A118A77
:10072000138614868585807E858784818D7F8B7F67
:10073000848384E190E0908B8787108617820895E8
:10074000CF92DF92EF92FF920F931F93CF93DF939D
:1007500000D000D0CDB7DEB7082F192FD8011F96D3
:100760008D919C91CC24CA94DC2C7601892BB1F418
:100770008EED91E00E94C80869837A838B839C8305
:10078000C616D706E806F906E8F0ACEBB0E08C91A7
:1007900080FDEECF20E030E081E017C08EED91E0EB
:1007A0000E94C80869837A838B839C83F8018785BC
:1007B0009089C980DA80EB80FC80C80ED91EE11CCC
:1007C000F11CD6CF23E430E080E0F80130872783A6
:1007D0000F900F900F900F90DF91CF911F910F917D
:1007E000FF90EF90DF90CF900895E82FF92F84814C
:1007F0008B7F848388EF90E09287818785EA80935E
:10080000BC001086178281E00895CF93DF93C82F34
:10081000D92FE62FF72F8C8182FB882780F920E4DF
:1008200030E08823B9F0442399F04E0F5F2F511D1B
:10083000DF0121E030E02E1B3F0BE989FA89EA0F46
:10084000FB1FE20FF31F90819D93A417B507A9F733
:1008500020E030E038872F83DF91CF910895AF9269
:10086000BF92CF92DF92EF92FF920F931F93CF939D
:10087000DF93C82FD92FA62EF42EB22EC02ED12E44
:100880001C8116951170112309F43EC0EE2021F051
:10089000C114D10409F448C0CE010E94A003182F4E
:1008A0008823B1F1F11046C0E989FA896A2D660FF3
:1008B0006083E989FA89B182EE20A1F0A6014E0D8C
:1008C000511DF60122E030E02C193D09C9018E0FBF
:1008D0009F1FA989BA89A80FB91F81918C93E4172A
:1008E000F507A1F792E09E0D8B85E0FA87F98B87DB
:1008F00096959F738C85807C892B8C87CE010E9476
:10090000F50318861F8204C084E090E098878F83E7
:10091000812FDF91CF911F910F91FF90EF90DF908A
:10092000CF90BF90AF90089581E190E098878F833A
:1009300010E0EECFE989FA898A2D880F8083E98952
:10094000FA89B1828B858F778B878C85807C8160DB
:100950008C87CE010E94F503CE010E94A003811175
:1009600002C0182FD5CFE989FA896A2D660F616018
:1009700060839B8581E08E0D80FB97F99B87869530
:100980008F739C85907C892B8C87CE010E94F50308
:10099000CE010E94A003811102C0182FB9CF4E2DA5
:1009A000B601CE010E9405048111ABCF182FB0CF44
:1009B000EF920F931F93CF93DF93C82FD92F962FCA
:1009C0008C81817081110AC021E430E038872F8347
:1009D000DF91CF911F910F91EF9008958D858295B2
:1009E000869587706E85660F660F660F682BE22E00
:1009F000042F152F292F41E0CE010E942F048823B8
:100A000039F318861F82E4CFEF920F931F93CF9391
:100A1000DF93C82FD92F962F8C81817081110AC046
:100A200021E430E038872F83DF91CF911F910F9120
:100A3000EF9008958D858295869587706E85660FF7
:100A4000660F660F682BE22E042F152F292F40E02A
:100A5000CE010E942F04882339F318861F82E4CF29
:100A6000E82FF92F8091B9008C7F883309F46EC08C
:100A7000A8F0803509F458C08835C9F58091BB00CD
:100A80009091AE01A189B289A90FB11D8C93848187
:100A90008460848384E98093BC000895883121F0C8
:100AA000F8F0883209F056C02091AE019385991F65
:100AB0009927991F84858F73880F892B281768F5CC
:100AC0000188F289E02D81E0820F8093AE01E20F70
:100AD000F11D80818093BB0085E88093BC00089560
:100AE000883011F08031B1F51092AE01DDCF803445
:100AF00089F52091AE0130E09385991F9927991FC0
:100B000084858F73880F892B8150990B281739079B
:100B1000CCF485EC8093BC00089584818460848348
:100B200084E98093BC0008959091BB00A189B289AB
:100B30008091AE0121E0280F2093AE01A80FB11DD6
:100B40009C93D7CF85E88093BC00089585EA809375
:100B5000BC0008958091B900858384E08093BC0037
:100B600008951F920F920FB60F9211242F933F9367
:100B70004F935F936F937F938F939F93AF93BF93A5
:100B8000EF93FF938FEA91E00E943005FF91EF9180
:100B9000BF91AF919F918F917F916F915F914F9195
:100BA0003F912F910F900FBE0F901F9018958FEAD5
:100BB00091E00E94880308954F925F926F927F9216
:100BC0008F929F92AF92BF92CF92DF92EF92FF925D
:100BD0000F931F93CF93DF93CDB7DEB72A970FB64E
:100BE000F894DEBF0FBECDBF89879A872091C000E1
:100BF0001091C1008091C2004091C4005091C50085
:100C0000E985FA8593859923C1F09130C1F08F7CF5
:100C1000E985FA8592859130A1F09230A1F01B7F91
:100C2000897FE985FA859481933029F170F49130B8
:100C300089F0923081F484600EC0877FE8CF8860AD
:100C4000E6CF8063ECCF8062EACF973021F4146066
:100C5000866001C08260217EB22EF82FFE73AF2E17
:100C6000E985FA850581083040F4E02FF0E0EA5D7F
:100C7000FF4E0C948B098660EECF01E021C0689492
:100C8000B1F808E01DC06894A6F81AC0FA2DF16406
:100C9000AF2E02E015C08C73806CA82E02E010C04D
:100CA0008A2D826CA82E02E00BC08C73816CA82E5A
:100CB00002E006C09A2D936CA92E02E001C000E16B
:100CC0008EED91E00E94B0086D837E838F839887BC
:100CD000E985FA852681378140855185A02FB0E0CE
:100CE0000E94A00969837A838B839C836D817E81B6
:100CF0008F81988529813A814B815C810E946909A5
:100D000069017A01F1E0CF1AD108E108F108B09247
:100D1000C0001093C100A092C200260137012C2D03
:100D2000352D462D572D60E070E080E090E008E022
:100D30000E94AD092F702093C500C092C400E985C0
:100D4000FA851382128281E02A960FB6F894DEBFEC
:100D50000FBECDBFDF91CF911F910F91FF90EF900C
:100D6000DF90CF90BF90AF909F908F907F906F90CB
:100D70005F904F900895E82FF92F842F952FA62F7D
:100D8000B72F2081277F2083803820E79207A10595
:100D9000B10509F480C008F047C0803C22E1920709
:100DA000A105B10509F477C028F5883027E092073E
:100DB000A105B10509F46FC058F0803629E092070B
:100DC000A105B10509F467C020EB30E080E029C03F
:100DD000883522E09207A105B10509F45CC0803B8B
:100DE00024E09207A105B10509F455C020EB30E0DD
:100DF00080E017C0803428E39207A105B10509F40B
:100E00004AC081152BE49207A105B10509F443C03E
:100E1000803825E29207A105B105E9F120EB30E029
:100E200080E0338322830895811522EC920721E02C
:100E3000A207B10581F1C8F0811524E8920723E0EB
:100E4000A207B10541F1811528EE920723E0A20720
:100E5000B10509F1811524EF920721E0A207B10540
:100E6000D1F020EB30E080E0DCCF803C2AED92072F
:100E7000A105B10581F0811521EE9207A105B1050B
:100E800051F0811526E99207A105B10521F020EB6B
:100E900030E080E0C6CF86839783A087B18720E0CB
:100EA00030E081E0BECFA82FB92F8C91877F8C9343
:100EB000EFEAE60FEA3408F043C0F0E0E25DFF4EEF
:100EC0000C948B09862F83708130A9F0823009F051
:100ED0003FC081E01B968C931B97862F8695869545
:100EE0008370813051F0823041F0882331F02FEF50
:100EF0003FEF80E028C080E0EDCF1A968C931A97E0
:100F000062956F706730B1F060F06830B9F06930A9
:100F100019F587E014968C93149720E030E081E077
:100F200012C0653049F02FEF3FEF80E0663059F492
:100F300081E0F0CF82E0EECF80E0ECCF83E0EACF3B
:100F400023EB30E080E013963C932E9312970895A4
:100F50002FEF3FEF80E0F7CF2FEF3FEF80E0F3CFB1
:100F60000F931F93CF93DF93C82FD92F122FCE014A
:100F70000E94BB06811105C0DF91CF911F910F9197
:100F800008958881877F8883183028F086EB90E069
:100F90009B838A83F1CF1D831B821A82602FCE012F
:100FA0000E945307882341F3E2ECF1E081E198E0ED
:100FB000918780871386128682E083831586148644
:100FC0001B821A82D9CFA82FB92FE62FF72F30977F
:100FD000D1F010828C9180FF02C084E080838C91DC
:100FE00081FF03C08081816080838C9182FF03C078
:100FF00080818260808320E030E081E013963C9322
:101000002E931297089521E130E080E0F7CFE0ECD5
:10101000F0E0808185FFFDCF6093C60080E090E026
:101020000895462F572F682F8091DC019091DD01A4
:101030000E9407080895089508951F920F920FB611
:101040000F9211242F933F934F935F936F937F934E
:101050008F939F93AF93BF93EF93FF930E94540995
:10106000FF91EF91BF91AF919F918F917F916F9180
:101070005F914F913F912F910F900FBE0F901F9056
:1010800018951F920F920FB60F9211242F933F9332
:101090004F935F936F937F938F939F93AF93BF9380
:1010A000EF93FF930E941C08FF91EF91BF91AF91C6
:1010B0009F918F917F916F915F914F913F912F9170
:1010C0000F900FBE0F901F9018951F920F920FB6A2
:1010D0000F9211242F933F934F935F936F937F93BE
:1010E0008F939F93AF93BF93EF93FF930E941B083F
:1010F000FF91EF91BF91AF919F918F917F916F91F0
:101100005F914F913F912F910F900FBE0F901F90C5
:1011100018950F9301E820E040E855E260E070E0A8
:1011200080ED91E00E94B0070F910895E82FF92F0C
:1011300080E094E2A4EFB0E086839783A087B18734
:1011400080839183A283B3831582148216861786C7
:10115000108A118A82898E7F828B148A138A08955D
:10116000CF93DF9300D000D0CDB7DEB7FC0126814E
:1011700037814085518529833A834B835C83CA013B
:10118000B9010F900F900F900F90DF91CF910895BC
:10119000CF93DF9300D000D0CDB7DEB7E82FF92F83
:1011A00082859385A485B58589839A83AB83BC8327
:1011B000BC01CD010F900F900F900F90DF91CF9158
:1011C00008958EED91E00E9496080895CF93DF93E5
:1011D00000D00F92CDB7DEB79E012D5F3F4F3F93FA
:1011E0002F93225031093F932F9325E231E03F9313
:1011F0002F939F938F930E940A0A0FB6F894DEBF35
:101200000FBECDBF029729F084E691E00E94DE096F
:1012100021C08A818F9389818F9382E491E09F938B
:101220008F930E94C8090F900F900F900F908B81A1
:10123000882381F084E191E09F938F9381E591E091
:101240009F938F930E94C809219A299A0F900F901B
:101250000F900F908BE191E0EFCF40E855E260E016
:1012600070E080ED91E00E94BB06E1ECF0E080814F
:1012700080618083808188608083808180688083B2
:1012800080ED91E00E94DC0578948091F301882341
:10129000E1F38091F401882319F01092F301F5CF66
:1012A00085EF91E00E94E60864EF71E080ED91E047
:1012B0000E94E3078091C6008093F50181E080934E
:1012C000F3018091F5018C3409F00895219A299A4F
:1012D000FCCFA1E21A2EAA1BBB1BFD010DC0AA1F49
:1012E000BB1FEE1FFF1FA217B307E407F50720F08F
:1012F000A21BB30BE40BF50B661F771F881F991F0A
:101300001A9469F760957095809590959B01AC0152
:10131000BD01CF010895EE0FFF1F0590F491E02D60
:101320000994A29FB001B39FC001A39F700D811DBE
:101330001124911DB29F700D811D1124911D0895DE
:101340000E949109A59F900DB49F900DA49F800DC0
:10135000911D1124089597FD1094002E083098F0E7
:101360000850232F342F452F562F672F782F892F82
:10137000912DF4CF15949795879577956795579507
:101380004795379527950A95AAF71124002D0895BA
:10139000A0E0B0E0EEECF9E00C94FD0FAE014B5F85
:1013A0005F4FFA0161917191AF0180917E0190913F
:1013B0007F010E94230AE2E00C9419100F931F93FF
:1013C000CF93DF93E0917E01F0917F01238100E0D4
:1013D00010E021FD0EC00FEF1FEFC801DF91CF918C
:1013E0001F910F9108950995892B11F00FEF1FEFB1
:1013F000CE01EC01899160917E0170917F01DB014A
:101400001896ED91FC918111EECF8AE00995892B18
:1014100021F3E1CFAEE0B0E0E0E1FAE00C94FD0FA3
:1014200085E08C838B899C899A838983AE01495E90
:101430005F4F6D897E89CE0101960E94BB0D2E966D
:10144000E2E00C941910AFE0B0E0E9E2FAE00C94AD
:10145000F00F6C017B018A01DC0117961C921E9231
:10146000169713968C9181FFECC12AE0522EF6015B
:101470009381F70193FD859193FF81917F018823EB
:1014800009F473C0853239F493FD859193FF8191FE
:101490007F01853229F4B60190E00E94440FE7CF26
:1014A000912C612C712CFFE1F71508F446C08B32AA
:1014B000C9F1F8F48032C1F1833209F43BC08336BC
:1014C00009F48AC0833709F493C0833509F0B6C0A4
:1014D000F801A190B1908F01692D70E076FC02C0F7
:1014E0006FEF7FEFC5010E94EF0E4C01689477F813
:1014F0005FC08D32E1F0803351F020ED280F2A30AB
:1015000048F18E3209F039C0689476F802C06894C8
:1015100070F8F70193FD859193FF81917F0181110F
:10152000C2CF33C0689471F8689472F8F2CF6894AF
:1015300073F8EFCF689474F8ECCF77FC26C020EDF9
:10154000280F2A3070F476FE05C0959C200D1124DA
:10155000922EDFCF659C200D1124622E689475F8C1
:10156000D8CF8E3251F476FECFCFD60116968D911C
:101570009C912F96EFE00C940C108C3619F4689423
:1015800077F8C7CF883609F4C4CF982F9F7D95543C
:10159000933008F094CF0C5F1F4F8FE3898388242A
:1015A0008394912CAE014F5F5F4F5A01E89477F816
:1015B00073FC05C0862D90E08816990640F18114D1
:1015C000910461F5662009F452CFB60180E290E003
:1015D0000E94440F6A94F6CFD8018C9189830E5FE4
:1015E0001F4F88248394912CFE0131965F01DECF3A
:1015F000D801AD90BD908D01692D70E076FC02C0E0
:101600006FEF7FEFC5010E94FA0E4C01CFCFB601FC
:1016100080E290E00E94440F6A94CCCFF50177FC01
:10162000859177FE81915F01B60190E00E94440FA1
:1016300061106A94F1E08F1A9108C1CF843619F0D5
:10164000893609F081C0F80177FE77C06191719108
:10165000819191918F01272D2F76822E97FF09C0BE
:1016600090958095709561957F4F8F4F9F4F6894AF
:1016700087F82AE030E0AE014F5F5F4F5A010E94C9
:101680008C0F8A19A82EBA2C782C86FE0CC0E894F0
:1016900070F8A91440F484FE05C082FC03C0782DC4
:1016A0007E7E772EB92C74FEA5C0FE01EA0DF11DD9
:1016B0008081803309F097C0872D897E782E73FC56
:1016C0000EC070FEA6C09A2CB61418F4960C9B1887
:1016D000B62C862D8B196B1408F480E0B80EB61466
:1016E00008F099C06B1874FE98C0B60180E390E0D2
:1016F0000E94440F72FE09C088E590E071FC02C0B0
:1017000088E790E0B6010E94440FA91408F492C043
:10171000AA94B12C9FEFA91AB90ADE0111964D01C6
:10172000AA0EBB1EF50182915F01B60190E00E94F6
:10173000440F8A149B04B1F745CF61917191072E34
:10174000000C880B990B86CF872CE89484F82AE04C
:1017500030E0853769F0572D597F852E803771F13C
:1017600018F5883571F18F3609F0FFCE28E030E0AA
:10177000F80187FE2EC081919191A191B1918C8742
:101780009D87AE87BF878F01BE016F5F7F4F5B0173
:10179000AB016C857D858E859F850E948C0F8A1993
:1017A000A82EE89487F86FCF883709F0DECE84FE44
:1017B00002C0689482F820E130E0DACF689484F8BF
:1017C000F6CF74FE03C0652F6660862E20E132E0FE
:1017D000CFCF81919191AC0160E070E04C875D8743
:1017E0006E877F87D0CF72FC02C0B39468CFB3946A
:1017F000B39465CF872D8678882309F460CFF5CF21
:10180000B60180E290E00E94440F83948614C0F3F6
:1018100060CF8B2CFBCF612C66CF872D86788823F9
:1018200009F473CF8BE271FE80E277FC8DE2B601A2
:1018300090E069CFB60180E390E00E94440F9A9453
:1018400064CF8FEF9FEF95CEFC01CA01DB0120FD35
:1018500008C023FD05C022FF02C0B383A283918389
:1018600080830895CF92DF92EF92FF92CF93DF9320
:1018700000D000D0CDB7DEB76B017C0183E044FD22
:1018800010C084E046FD0DC0D601F701AA0FBB1FB2
:10189000EE1FFF1F1094D1F7CA0EDB1EEE1EFF1EB7
:1018A00081E0CC0CDD1CEE1CFF1C81508111F9CFB6
:1018B000D701C601820F911DA11DB11DBC01CD0133
:1018C0000F900F900F900F90DF91CF91FF90EF90BE
:1018D000DF90CF9008950F931F93CF93DF938C01E8
:1018E000C8010E94050FEC0197FD08C00E94DB0EA5
:1018F000892BB1F7B801CE010E94740FCE01DF91A0
:10190000CF911F910F910895A0E0B0E0EAE8FCE0CC
:101910000C94F40F082F992EC62F5A01122F0E94F3
:10192000050FFC019927EB3219F08D9789F41068A7
:10193000C150C11106C080E0CDB7DEB7EBE00C941A
:101940001010802F992D0E94050FFC0197FDF3CFF9
:10195000D12FDD7F812F8073811131C0E03379F584
:10196000EE24EA94EC0EC13039F0802F992D0E94BC
:10197000050FFC0197FF15C0C12CD12C7601D7FFB4
:1019800008C0F094E094D094C094C11CD11CE11C18
:10199000F11C2D2FB701A601C5010E94240C81E086
:1019A000CBCF8F7D883529F5D264C250CC2321F36B
:1019B000802F992D0E94050FFC0197FDDDCFC12CD2
:1019C000D12C760120ED2E0F2830D8F0D4FD09C09F
:1019D0002A30B8F0D6FF05C02F7D8FEE820F8630FB
:1019E00078F0602F792DCF010E94740FD1FDC7CF01
:1019F000A2CF16FF03C0D260CE2DE1CFD261FCCFC3
:101A000027504D2FC701B6010E94320C6B017C019B
:101A1000D260C150CC2309F4B2CF802F992D0E94FF
:101A2000050FFC0197FFCECFE1CFA0E2B0E0EBE1E4
:101A3000FDE00C94F10F6C01962E7A01CE01019617
:101A40005C0180E2F50111928A95E9F7F601838045
:101A5000890120E030E0B0E0712CA0E041E050E0EE
:101A6000F80183FC959183FE9191892F8F0191114B
:101A700007C000E010E0C801A096EEE00C940D1045
:101A80009E3539F42115310539F5A1E02F5F3F4F1F
:101A9000E7CF6A2F70E062177307F4F49D3539F1D0
:101AA0009D32D1F47720F1F0E82FE695E695E695A2
:101AB000EA0DFB2DF11D682F67703A0102C0660C1C
:101AC000771C6A95E2F79081962990838B1769F0CD
:101AD0008B1730F48F5FE8CF7110E6CFB92FE4CFCA
:101AE0008150E2CF77247394D1CF712CCFCF772060
:101AF00019F08E8180628E83AA2361F0F5019E0128
:101B00002F5D3F4F8081DF01319680958C93E217E6
:101B1000F307C1F788248394C6010E94050F97FD3F
:101B200016C0E82FE695E695E695EA0DFB2DF11D2A
:101B3000208130E0AC014770552702C035952795CC
:101B40004A95E2F720FD06C0B6010E94740F882076
:101B500059F08FCFE114F10419F0F70181937F015F
:101B60009A94812C9110D8CFE114F10409F483CF19
:101B7000F701108280CFA6E0B0E0E1ECFDE00C942C
:101B8000F10F5C016D837E83742E652EDC01179648
:101B90001C921E921697C12CD5011396FC90ED81D4
:101BA000FE81F3FC8591F3FE8191182FFE83ED8376
:101BB0008823F9F090E00E94DB0E892B21F0C5010B
:101BC0000E946B0CE9CF153251F4ED81FE81F3FCDC
:101BD0001591F3FE1191FE83ED83153269F4C50171
:101BE0000E94050F97FDA4C01817B1F2B5010E941D
:101BF000740F8C2D90E0A0C000E01A3249F4ED8102
:101C0000FE81F3FC1591F3FE1191FE83ED8301E05B
:101C1000D12C20ED210F2A3060F101FF42C0DD20E0
:101C200041F3183609F440C01C3609F449C01123A9
:101C300001F3612F70E088E690E00E94E40E892BAA
:101C4000C1F2E12CF12C00FD06C0E72DF62DE1904C
:101C5000F1907E2E6F2E1E3609F03CC0D5011696EF
:101C60004D915C9160E070E0202FC7010E94240C30
:101C700093CF02608D2D90E0A0E0B0E089839A833D
:101C8000AB83BC8340E2BC01CD010E94320CD62E56
:101C9000ED81FE81F3FC1591F3FE1191FE83ED833E
:101CA000B8CFDD24DA94BDCFED81FE81F3FC159130
:101CB000F3FE1191FE83ED83183609F0B8CF08606A
:101CC0000460ED81FE81F3FC1591F3FE1191FE831A
:101CD000ED83ADCF1336B1F401FD02C0DD24D39402
:101CE000C5010E94050F97FD23C0E114F10419F00E
:101CF000F70181937F01DA94D110F2CF00FD4CCF30
:101D0000C3944ACF1B35E1F42D813E81A7016D2D8F
:101D1000C5010E94150D8D839E83ED81FE81EF2B01
:101D200069F7D50113968C918073882309F461CFEC
:101D30008FEF9FEFC1105DCF2696EEE00C940D1053
:101D4000C5010E946B0C97FDF3CF1F3691F130F463
:101D5000143641F0193639F0006405C01337A1F08C
:101D60001537D1F70062202FA7016D2DC5010E9404
:101D7000840C8823D5CFE114F10419F0F701819286
:101D80007F01DA94DD2071F0C5010E94050F4C013E
:101D900097FD08C00E94DB0E892B69F3B501C401D1
:101DA0000E94740FE114F10409F4A8CFF701108226
:101DB000A5CF0061D8CF91110C94EA0F803219F0B1
:101DC00089508550C8F70895FC010590061621F04A
:101DD0000020D9F7C00108953197CF010895FC0183
:101DE0000590615070400110D8F7809590958E0F46
:101DF0009F1F0895FC016150704001900110D8F7B9
:101E0000809590958E0F9F1F0895CF93DF93EC01DF
:101E10008B8180FF1BC086FF0CC08F7B8B838E81E4
:101E20009F8101969F838E838A8190E0DF91CF917D
:101E3000089582FF19C0E881F9819081292F092E28
:101E4000000C330B911105C080628B838FEF9FEFE5
:101E5000EDCF3196F983E8838E819F8101969F8330
:101E60008E83C9019927E2CFEA85FB85CE010995CA
:101E70009C0197FFF1CF8B812F3F3F4F19F490E1E9
:101E8000892BE3CF90E2FCCF0F931F93CF93DF9387
:101E9000182F092FEB018B8181FD09C01FEF0FEF78
:101EA000812F902FDF91CF911F910F91089582FF85
:101EB00014C02E813F818C819D81281739073CF405
:101EC000E881F981CF0101969983888310838E81FF
:101ED0009F8101969F838E83E3CFE885F985812FCB
:101EE0000995892BA1F3DACFFB01238120FF11C0D3
:101EF00026FD0FC08F3F980771F082832F7D2064ED
:101F000023832681378121503109378326839927FE
:101F100008958FEF9FEF0895FA01AA27283051F115
:101F2000203181F1E8946F936E7F6E5F7F4F8F4F0A
:101F30009F4FAF4FB1E03ED0B4E03CD0670F781F69
:101F4000891F9A1FA11D680F791F8A1F911DA11D4E
:101F50006A0F711D811D911DA11D20D009F4689487
:101F60003F912AE0269F11243019305D3193DEF62F
:101F7000CF010895462F4770405D4193B3E00FD0E5
:101F8000C9F7F6CF462F4F70405D4A3318F0495DD0
:101F900031FD4052419302D0A9F7EACFB4E0A695B3
:101FA0009795879577956795BA95C9F700976105D5
:101FB000710508959B01AC010A2E0694579547952B
:101FC00037952795BA95C9F7620F731F841F951F20
:101FD000A01D08959927882708952F923F924F9228
:101FE0005F926F927F928F929F92AF92BF92CF92A9
:101FF000DF92EF92FF920F931F93CF93DF93CDB7B2
:10200000DEB7CA1BDB0B0FB6F894DEBF0FBECDBF29
:1020100009942A88398848885F846E847D848C84FA
:102020009B84AA84B984C884DF80EE80FD800C8103
:102030001B81AA81B981CE0FD11D0FB6F894DEBFE6
:102040000FBECDBFED010895F894FFCF5F063F06A8
:10205000430646064B06500655065A0662076207B7
:10206000A007A00762076207A007A0076207620730
:10207000A007A007A007A007A007A00762076207A4
:10208000A007A00762076207A007A0076207620710
:10209000A007A007A007A007A007A0076207620784
:1020A000A007A00762076207A007A00762076207F0
:1020B000A007A007A007A007A007A0076207620764
:1020C000A007A00762076207A007A00762076207D0
:1020D000A007A007A007A007A007A0076207620744
:1020E000A007A00762076207A007A00762076207B0
:1020F00000000000D8044B03520304056003590399
:10210000810384034C696761646F004465736C6983
:102110006761646F007B2249445F4C4544223A204A
:1021200025642C202265737461646F223A20256433
:102130007D00494420646F204C45443A2025640AC0
:102140000045737461646F20646F204C45443A20ED
:1021500025730A004572726F20616F2070726F6381
:0C2160006573736172204A534F4E0000FB
:00000001FF
