:100000000C9442000C944E010C9481010C94B401A8
:100010000C94E7010C941A020C946A000C9471037E
:100020000C9495030C94B9030C9417030C94CF0211
:100030000C94F3020C943B030C9450020C94740245
:100040000C9498020C946A000C9490080C94D808B4
:100050000C94B4080C941B010C946A000C946A0074
:100060000C9448060C946A003F017201A501D80166
:100070000B023E02BC025F03DD036E06FC0854095E
:10008000D80AEC0A11241FBECFEFD8E0DEBFCDBFE7
:1000900011E0A0E0B1E0E0E9F0E202C005900D92CD
:1000A000A63DB107D9F722E0A6EDB1E001C01D924F
:1000B000AE35B207E1F710E0C1E4D0E004C021970B
:1000C000FE010E942B0BC433D107C9F70E945909C6
:1000D0000C94E90F0C9400000F931F93CF93DF93C0
:1000E000D62FC72F042F152F66E071E08D2F9C2F80
:1000F0000E94C20C892B61F166E671E08D2F9C2F66
:100100000E94C20C892B09F075C08CE691E09F9388
:100110008F930E94CB0C60E271E0802F912F0E94A0
:10012000C20C0F900F90892B09F456C06EE271E05B
:10013000802F912F0E94C20C892B09F056C08AE8AB
:1001400091E09F938F930E94CB0C0F900F905AC019
:100150008BE091E09F938F930E94CB0C60E271E063
:10016000802F912F0E94C20C0F900F90892BC9F005
:100170006EE271E0802F912F0E94C20C892BD1F08A
:100180006FE371E0802F912F0E94C20C892BD9F46C
:1001900081E491E09F938F930E94CB0C0F900F907E
:1001A00031C082E291E09F938F930E94CB0C0F901D
:1001B0000F9028C080E391E09F938F930E94CB0C17
:1001C0000F900F901FC081E591E09F938F930E9445
:1001D000CB0C0F900F9016C08AE791E09F938F93FE
:1001E0000E94CB0C0F900F900DC08CE991E00E9403
:1001F000E10C08C08EEA91E09F938F930E94CB0C94
:100200000F900F90DF91CF911F910F910895E82FDC
:10021000F92F158280858E7F808780818C7F8B7FF0
:1002200080838FE090E0978386831382148212820A
:100230001182089508951F920F920FB60F92112404
:100240002F933F934F935F936F937F938F939F93DE
:10025000AF93BF93EF93FF930E941A01FF91EF9129
:10026000BF91AF919F918F917F916F915F914F91CE
:100270003F912F910F900FBE0F901F90189580EE19
:1002800091E00E9407010895E82FF92F11828081E3
:100290008E7F808313821282089508951F920F9299
:1002A0000FB60F9211242F933F934F935F936F9349
:1002B0007F938F939F93AF93BF93EF93FF930E948E
:1002C0004D01FF91EF91BF91AF919F918F917F91E0
:1002D0006F915F914F913F912F910F900FBE0F90B3
:1002E0001F90189589EE91E00E9444010895E82F2F
:1002F000F92F118280818E7F80831382128208956C
:1003000008951F920F920FB60F9211242F933F93CF
:100310004F935F936F937F938F939F93AF93BF930D
:10032000EF93FF930E948001FF91EF91BF91AF91F6
:100330009F918F917F916F915F914F913F912F91FD
:100340000F900FBE0F901F9018958DEE91E00E94B8
:1003500077010895E82FF92F118280818E7F8083A5
:1003600013821282089508951F920F920FB60F9272
:1003700011242F933F934F935F936F937F938F93AA
:100380009F93AF93BF93EF93FF930E94B301FF91AD
:10039000EF91BF91AF919F918F917F916F915F91FD
:1003A0004F913F912F910F900FBE0F901F90189576
:1003B00081EF91E00E94AA010895E82FF92F1182A0
:1003C00080818E7F808313821282089508951F9208
:1003D0000F920FB60F9211242F933F934F935F9379
:1003E0006F937F938F939F93AF93BF93EF93FF93FD
:1003F0000E94E601FF91EF91BF91AF919F918F9184
:100400007F916F915F914F913F912F910F900FBE10
:100410000F901F90189585EF91E00E94DD010895DF
:10042000E82FF92F118280818E7F808313821282C0
:10043000089508951F920F920FB60F9211242F93D3
:100440003F934F935F936F937F938F939F93AF935C
:10045000BF93EF93FF930E941902FF91EF91BF9119
:10046000AF919F918F917F916F915F914F913F914C
:100470002F910F900FBE0F901F90189589EF91E06C
:100480000E9410020895E82FF92F118212828081B4
:100490008E7F8083148213820895089508950895AD
:1004A0001F920F920FB60F9211242F933F934F93E9
:1004B0005F936F937F938F939F93AF93BF93EF93CC
:1004C000FF930E944D02FF91EF91BF91AF919F91D9
:1004D0008F917F916F915F914F913F912F910F90ED
:1004E0000FBE0F901F9018951F920F920FB60F928C
:1004F00011242F933F934F935F936F937F938F9329
:100500009F93AF93BF93EF93FF930E944E02FF918F
:10051000EF91BF91AF919F918F917F916F915F917B
:100520004F913F912F910F900FBE0F901F901895F4
:100530001F920F920FB60F9211242F933F934F9358
:100540005F936F937F938F939F93AF93BF93EF933B
:10055000FF930E944F02FF91EF91BF91AF919F9146
:100560008F917F916F915F914F913F912F910F905C
:100570000FBE0F901F9018958DEF91E00E944302DF
:100580000895E82FF92F1182128280818E7F808357
:1005900014821382089508950895089508951F926E
:1005A0000F920FB60F9211242F933F934F935F93A7
:1005B0006F937F938F939F93AF93BF93EF93FF932B
:1005C0000E94CB02FF91EF91BF91AF919F918F91CC
:1005D0007F916F915F914F913F912F910F900FBE3F
:1005E0000F901F9018951F920F920FB60F92112423
:1005F0002F933F934F935F936F937F938F939F932B
:10060000AF93BF93EF93FF930E94CC02FF91EF91C2
:10061000BF91AF919F918F917F916F915F914F911A
:100620003F912F910F900FBE0F901F9018951F9222
:100630000F920FB60F9211242F933F934F935F9316
:100640006F937F938F939F93AF93BF93EF93FF939A
:100650000E94CD02FF91EF91BF91AF919F918F9139
:100660007F916F915F914F913F912F910F900FBEAE
:100670000F901F9018951F920F920FB60F92112492
:100680002F933F934F935F936F937F938F939F939A
:10069000AF93BF93EF93FF930E94CE02FF91EF9130
:1006A000BF91AF919F918F917F916F915F914F918A
:1006B0003F912F910F900FBE0F901F90189582E0E1
:1006C00092E00E94C1020895E82FF92F1182128250
:1006D00080818E7F80831482138208950895089507
:1006E00008951F920F920FB60F9211242F933F93EC
:1006F0004F935F936F937F938F939F93AF93BF932A
:10070000EF93FF930E946E03FF91EF91BF91AF9122
:100710009F918F917F916F915F914F913F912F9119
:100720000F900FBE0F901F9018951F920F920FB64B
:100730000F9211242F933F934F935F936F937F9367
:100740008F939F93AF93BF93EF93FF930E946F0399
:10075000FF91EF91BF91AF919F918F917F916F9199
:100760005F914F913F912F910F900FBE0F901F906F
:1007700018951F920F920FB60F9211242F933F934B
:100780004F935F936F937F938F939F93AF93BF9399
:10079000EF93FF930E947003FF91EF91BF91AF9190
:1007A0009F918F917F916F915F914F913F912F9189
:1007B0000F900FBE0F901F90189587E092E00E9457
:1007C0006403089527E030E0FC013383228380E056
:1007D000089527E030E0FC013383228380E0089510
:1007E00027E030E0FC013383228380E00895E82F86
:1007F000F92F862F8295880F807E95859F71892B92
:1008000085876695669566958685807873707295FE
:10081000770F707E682B672B6687868140FB80F997
:1008200086838481816084831086178281E00895A5
:1008300085E090E00895FC01878190850895E82F78
:10084000F92F86EC91E091838083128A118A1386B6
:1008500014868585807E858784818D7F8B7F8483C8
:1008600084E190E0908B8787108617820895CF925D
:10087000DF92EF92FF920F931F93CF93DF9300D0FD
:1008800000D0CDB7DEB7082F192FD8011F968D9154
:100890009C91CC24CA94DC2C7601892BB1F48CE396
:1008A00092E00E943B0969837A838B839C83C616FE
:1008B000D706E806F906E8F0ACEBB0E08C9180FDD5
:1008C000EECF20E030E081E017C08CE392E00E94A0
:1008D0003B0969837A838B839C83F80187859089A0
:1008E000C980DA80EB80FC80C80ED91EE11CF11CA7
:1008F000D6CF23E430E080E0F801308727830F90E3
:100900000F900F900F90DF91CF911F910F91FF905B
:10091000EF90DF90CF900895E82FF92F84818B7F9F
:10092000848388EF90E09287818785EA8093BC007A
:100930001086178281E00895CF93DF93C82FD92FB7
:10094000E62FF72F8C8182FB882780F920E430E0A6
:100950008823B9F0442399F04E0F5F2F511DDF011A
:1009600021E030E02E1B3F0BE989FA89EA0FFB1FDB
:10097000E20FF31F90819D93A417B507A9F720E01C
:1009800030E038872F83DF91CF910895AF92BF92E7
:10099000CF92DF92EF92FF920F931F93CF93DF934B
:1009A000C82FD92FA62EF42EB22EC02ED12E1C81E8
:1009B00016951170112309F43EC0EE2021F0C114E8
:1009C000D10409F448C0CE010E943704182F8823AF
:1009D000B1F1F11046C0E989FA896A2D660F60838A
:1009E000E989FA89B182EE20A1F0A6014E0D511DD0
:1009F000F60122E030E02C193D09C9018E0F9F1F3E
:100A0000A989BA89A80FB91F81918C93E417F507BA
:100A1000A1F792E09E0D8B85E0FA87F98B8796957A
:100A20009F738C85807C892B8C87CE010E948C04DF
:100A300018861F8204C084E090E098878F83812FFE
:100A4000DF91CF911F910F91FF90EF90DF90CF90AA
:100A5000BF90AF90089581E190E098878F8310E078
:100A6000EECFE989FA898A2D880F8083E989FA898E
:100A7000B1828B858F778B878C85807C81608C871A
:100A8000CE010E948C04CE010E943704811102C065
:100A9000182FD5CFE989FA896A2D660F61606083C6
:100AA0009B8581E08E0D80FB97F99B8786958F73E0
:100AB0009C85907C892B8C87CE010E948C04CE0172
:100AC0000E943704811102C0182FB9CF4E2DB601F4
:100AD000CE010E949C048111ABCF182FB0CFEF92B2
:100AE0000F931F93CF93DF93C82FD92F962F8C810D
:100AF000817081110AC021E430E038872F83DF91B3
:100B0000CF911F910F91EF9008958D8582958695D5
:100B100087706E85660F660F660F682BE22E042FB6
:100B2000152F292F41E0CE010E94C604882339F3F6
:100B300018861F82E4CFEF920F931F93CF93DF931A
:100B4000C82FD92F962F8C81817081110AC021E482
:100B500030E038872F83DF91CF911F910F91EF9075
:100B600008958D858295869587706E85660F660FD0
:100B7000660F682BE22E042F152F292F40E0CE019F
:100B80000E94C604882339F318861F82E4CFE82F19
:100B9000F92F8091B9008C7F883309F46EC0A8F0DA
:100BA000803509F458C08835C9F58091BB00909113
:100BB0000C02A189B289A90FB11D8C938481846034
:100BC000848384E98093BC000895883121F0F8F093
:100BD000883209F056C020910C029385991F9927FD
:100BE000991F84858F73880F892B281768F50188D2
:100BF000F289E02D81E0820F80930C02E20FF11D5B
:100C000080818093BB0085E88093BC000895883084
:100C100011F08031B1F510920C02DDCF803489F5EE
:100C200020910C0230E09385991F9927991F8485A4
:100C30008F73880F892B8150990B28173907CCF4B3
:100C400085EC8093BC00089584818460848384E96A
:100C50008093BC0008959091BB00A189B2898091D6
:100C60000C0221E0280F20930C02A80FB11D9C93C9
:100C7000D7CF85E88093BC00089585EA8093BC00B7
:100C800008958091B900858384E08093BC00089525
:100C90001F920F920FB60F9211242F933F934F93F1
:100CA0005F936F937F938F939F93AF93BF93EF93D4
:100CB000FF938DE092E00E94C705FF91EF91BF91F5
:100CC000AF919F918F917F916F915F914F913F91E4
:100CD0002F910F900FBE0F901F9018958DE092E00E
:100CE0000E941F0408954F925F926F927F928F929D
:100CF0009F92AF92BF92CF92DF92EF92FF920F93AB
:100D00001F93CF93DF93CDB7DEB72A970FB6F89432
:100D1000DEBF0FBECDBF89879A872091C00010919A
:100D2000C1008091C2004091C4005091C500E98586
:100D3000FA8593859923C1F09130C1F08F7CE985C4
:100D4000FA8592859130A1F09230A1F01B7F897FC6
:100D5000E985FA859481933029F170F4913089F016
:100D6000923081F484600EC0877FE8CF8860E6CF40
:100D70008063ECCF8062EACF973021F41460866004
:100D800001C08260217EB22EF82FFE73AF2EE9855E
:100D9000FA850581083040F4E02FF0E0EA50F04F8A
:100DA0000C942B0B8660EECF01E021C06894B1F863
:100DB00008E01DC06894A6F81AC0FA2DF164AF2EA1
:100DC00002E015C08C73806CA82E02E010C08A2D42
:100DD000826CA82E02E00BC08C73816CA82E02E0FE
:100DE00006C09A2D936CA92E02E001C000E18CE3AD
:100DF00092E00E9423096D837E838F839887E98523
:100E0000FA852681378140855185A02FB0E00E9468
:100E1000400B69837A838B839C836D817E818F8174
:100E2000988529813A814B815C810E94090B690177
:100E30007A01F1E0CF1AD108E108F108B092C000C0
:100E40001093C100A092C200260137012C2D352D30
:100E5000462D572D60E070E080E090E008E00E94B1
:100E60004D0B2F702093C500C092C400E985FA8510
:100E70001382128281E02A960FB6F894DEBF0FBE6D
:100E8000CDBFDF91CF911F910F91FF90EF90DF9039
:100E9000CF90BF90AF909F908F907F906F905F901A
:100EA0004F900895E82FF92F842F952FA62FB72F55
:100EB0002081277F2083803820E79207A105B10594
:100EC00009F480C008F047C0803C22E19207A105E8
:100ED000B10509F477C028F5883027E09207A1050D
:100EE000B10509F46FC058F0803629E09207A105DA
:100EF000B10509F467C020EB30E080E029C08835F7
:100F000022E09207A105B10509F45CC0803B24E012
:100F10009207A105B10509F455C020EB30E080E04F
:100F200017C0803428E39207A105B10509F44AC02F
:100F300081152BE49207A105B10509F443C080385F
:100F400025E29207A105B105E9F120EB30E080E050
:100F5000338322830895811522EC920721E0A207B2
:100F6000B10581F1C8F0811524E8920723E0A207BA
:100F7000B10541F1811528EE920723E0A207B105E2
:100F800009F1811524EF920721E0A207B105D1F004
:100F900020EB30E080E0DCCF803C2AED9207A10519
:100FA000B10581F0811521EE9207A105B10551F03F
:100FB000811526E99207A105B10521F020EB30E06B
:100FC00080E0C6CF86839783A087B18720E030E09A
:100FD00081E0BECFA82FB92F8C91877F8C93EFEA49
:100FE000E60FEA3408F043C0F0E0E250F04F0C9412
:100FF0002B0B862F83708130A9F0823009F03FC01F
:1010000081E01B968C931B97862F8695869583701F
:10101000813051F0823041F0882331F02FEF3FEFE3
:1010200080E028C080E0EDCF1A968C931A976295E5
:101030006F706730B1F060F06830B9F0693019F561
:1010400087E014968C93149720E030E081E012C082
:10105000653049F02FEF3FEF80E0663059F481E0D2
:10106000F0CF82E0EECF80E0ECCF83E0EACF23EB5D
:1010700030E080E013963C932E93129708952FEF63
:101080003FEF80E0F7CF2FEF3FEF80E0F3CF0F93FC
:101090001F93CF93DF93C82FD92F122FCE010E9419
:1010A0005207811105C0DF91CF911F910F910895D3
:1010B0008881877F8883183028F086EB90E09B83B7
:1010C0008A83F1CF1D831B821A82602FCE010E947A
:1010D000EA07882341F3E0E2F2E084E898E09187B0
:1010E00080871386128682E08383158614861B828E
:1010F0001A82D9CFE0ECF0E0808185FFFDCF6093CC
:10110000C60080E090E00895462F572F682F809109
:101110003A0290913B020E947A080895089508953A
:101120001F920F920FB60F9211242F933F934F935C
:101130005F936F937F938F939F93AF93BF93EF933F
:10114000FF930E945A0AFF91EF91BF91AF919F9137
:101150008F917F916F915F914F913F912F910F9060
:101160000FBE0F901F9018951F920F920FB60F92FF
:1011700011242F933F934F935F936F937F938F939C
:101180009F93AF93BF93EF93FF930E948F08FF91BC
:10119000EF91BF91AF919F918F917F916F915F91EF
:1011A0004F913F912F910F900FBE0F901F90189568
:1011B0001F920F920FB60F9211242F933F934F93CC
:1011C0005F936F937F938F939F93AF93BF93EF93AF
:1011D000FF930E948E08FF91EF91BF91AF919F9175
:1011E0008F917F916F915F914F913F912F910F90D0
:1011F0000FBE0F901F9018950F9301E820E040E874
:1012000055E260E070E08EE292E00E9447080F91A4
:101210000895E82FF92F80E094E2A4EFB0E08683F0
:101220009783A087B18780839183A283B38315823C
:10123000148216861786108A118A82898E7F828B85
:10124000148A138A0895CF93DF9300D000D0CDB7CE
:10125000DEB7FC01268137814085518529833A8399
:101260004B835C83CA01B9010F900F900F900F90D0
:10127000DF91CF910895CF93DF9300D000D0CDB709
:10128000DEB7E82FF92F82859385A485B5858983FC
:101290009A83AB83BC83BC01CD010F900F900F905C
:1012A0000F90DF91CF9108958CE392E00E9409099D
:1012B0000895CDB7DEB7AE970FB6F894DEBF0FBE78
:1012C000CDBF8EE292E00E947306E1ECF0E08081F7
:1012D0008860808380818061808380818068808352
:1012E000EAEDF1E080E292E0958384839383828348
:1012F000918380837894E1E5F2E080818862806464
:10130000808383819481009711F00E941A0C01E57B
:1013100012E0D8018C91816012961C921E92119756
:101320001A961C921E921997897F8F7E8C9316961F
:101330001C921E92159718961C921E92179761E0A8
:1013400070E082E390E00E94680B282F392FF801AB
:1013500034832383232B49F0808122E330E03283DE
:1013600021838460877D8F7B808320E001E512E00C
:10137000EE24E394F12C69C0E1E0F0E0EC0FFD1FF6
:10138000E20FF11D40832F5F60C0D8018C9130FBCC
:1013900080F9877F8C934D3079F7E1E0F0E0EC0F36
:1013A000FD1FE20FF11D1082998180E09D3399F0BD
:1013B00080E0282F8F5FE4E2F0E0EC0FFD1FE20FEA
:1013C000F11D9083E1E0F0E0EC0FFD1FE80FF11D4F
:1013D00090819D3371F7E4E2F0E0EC0FFD1FE80F20
:1013E000F11D108291E0980FE1E0F0E0EC0FFD1F9D
:1013F000E90FF11D2081222309F45AC090E08E5F8D
:10140000EAE1F0E0EC0FFD1FE90FF11D2083282F2A
:10141000290FE1E0F0E0EC0FFD1FE20FF11D9F5FEF
:1014200020812111EDCFEAE1F0E0EC0FFD1FE90F83
:10143000F11D1082AE01465E5F4FBE016C5D7F4FB5
:10144000CE018E960E946C002F2DD8011C961C9206
:101450001E921B978C9180FDF8CF4F2D82FF8CCF71
:1014600083FD8ACF85FD88CF382F38603C93159651
:101470008D919C9116971396ED91FC911497E80F1E
:10148000F91F4081019611966D917C910E94F50A99
:10149000F80196838583818592850197928781875C
:1014A0003D7F30833E2D892B09F46FCF3F2D6DCFCB
:1014B000922FB9CFCF93DF939091C60080915102C4
:1014C00082FF67C083FD6EC086FD6FC0E1E5F2E07C
:1014D0008860808381FB222720F9211127C0A38106
:1014E000B48147815085A40FB51F9C93C181D281DF
:1014F000878190850196BE010E94F50A90878783B7
:101500008185928501969287818731E0C817D90736
:1015100009F030E0E1E5F2E0808130FB81F98E7F77
:10152000822B877F808380E090E035C080915102DC
:1015300084FF27C0E1E5F2E0A381B48127813085F3
:10154000A20FB31F9C93C181D281878190850196A0
:10155000BE010E94F50A9087878385819681019656
:10156000BE010E94F50A968385838185928531E0CC
:10157000C817D90709F030E021E0892B59F220E0A3
:10158000C9CFE1E5F2E08081877F808381E290E04E
:1015900002C084E090E090935D0280935C02DF9152
:1015A000CF9108958AE090E0F6CF8FE090E0F3CFFE
:1015B000E1E5F2E080811482138289661282118251
:1015C00012861186897F8F7E80831682158210860F
:1015D00017821486138608958091540290915502C3
:1015E000009711F00E941A0C0895AA1BBB1B51E131
:1015F00007C0AA1FBB1FA617B70710F0A61BB70B83
:10160000881F991F5A95A9F780959095BC01CD0127
:101610000895A1E21A2EAA1BBB1BFD010DC0AA1F33
:10162000BB1FEE1FFF1FA217B307E407F50720F04B
:10163000A21BB30BE40BF50B661F771F881F991FC6
:101640001A9469F760957095809590959B01AC010F
:10165000BD01CF010895EE0FFF1F0590F491E02D1D
:101660000994A29FB001B39FC001A39F700D811D7B
:101670001124911DB29F700D811D1124911D08959B
:101680000E94310BA59F900DB49F900DA49F800DDB
:10169000911D1124089597FD1094002E083098F0A4
:1016A0000850232F342F452F562F672F782F892F3F
:1016B000912DF4CF159497958795779567955795C4
:1016C0004795379527950A95AAF71124002D089577
:1016D0000F931F93CF93DF93869F8001879F100DF9
:1016E000969F100D1124C8010E94840BEC010097F5
:1016F00029F0A80160E070E00E94BB0CCE01DF91F0
:10170000CF911F910F9108950F931F93CF93DF9364
:101710009C01029710F422E030E0E091D601F091B4
:10172000D70180E090E0A0E0B0E0309791F400971E
:1017300009F445C0821B930B84309105B8F58A816A
:101740009B816115710569F1FB0193838283FE0121
:1017500011C0408151810281138142175307F0F07B
:101760004217530799F4109761F012960C93129751
:1017700013961C933296CF01DF91CF911F910F9159
:1017800008950093D6011093D701F4CF009719F074
:101790004817590718F4CA01BD01EF01DF01F8012C
:1017A000C4CF9093D7018093D601D1CFFE01E80F2B
:1017B000F91F21933193029799838883DCCF80911D
:1017C000D8019091D901892B41F480910201909127
:1017D00003019093D9018093D801809100019091E9
:1017E0000101009741F48DB79EB7409104015091DB
:1017F0000501841B950B4091D8015091D9014817E0
:10180000590708F0B8CF841B950B8217930708F48B
:10181000B2CFB9016E5F7F4F8617970708F4ABCF41
:10182000640F751F7093D9016093D801FA01219359
:101830003193A1CFCF93DF939C010097D9F0FC01A6
:10184000329713821282A091D601B091D7011097DE
:1018500009F086C080819181280F391F8091D801BD
:101860009091D9018217930709F05FC0F093D901D5
:10187000E093D801DF91CF910895CE17DF0708F0EC
:1018800059C0AE010A80DB81C02D2097B1F7EA0173
:10189000FB83EA8329913991CE01820F931FE817C8
:1018A000F90761F4808191810296820F931FEA010A
:1018B00099838883828193819B838A83E0E0F0E02F
:1018C00012968D919C911397009709F04EC0ED01EF
:1018D000899199918C0F9D1F2091D8013091D90148
:1018E0002817390739F6309709F042C01092D7010E
:1018F0001092D601B093D901A093D801BBCFB38386
:10190000A28380819181280F391FA217B30769F440
:1019100002962D913C911197820F931F91838083A2
:1019200012968D919C9193838283F093D701E093DB
:10193000D601A0CFD383C28380819181280F391F24
:10194000C217D30709F0A3CF029628813981820FED
:10195000931F918380838A819B819383828397CF16
:10196000AE17BF0760F6ED018CCFFD01DC01A8CFFB
:1019700013821282BFCFDC0101C06D9341505040F1
:10198000E0F70895FB01DC018D91019080190110B1
:10199000D9F3990B0895A0E0B0E0E1EDFCE00C94E0
:1019A000C20FAE014B5F5F4FFA0161917191AF01C0
:1019B0008091DC019091DD010E940D0DE2E00C941C
:1019C000DE0F0F931F93CF93DF93E091DC01F09133
:1019D000DD01238100E010E021FD0EC00FEF1FEFBD
:1019E000C801DF91CF911F910F9108950995892B1F
:1019F00011F00FEF1FEFCE01EC0189916091DC0136
:101A00007091DD01DB011896ED91FC918111EECF13
:101A10008AE00995892B21F3E1CFAFE0B0E0E3E163
:101A2000FDE00C94B50F6C017B018A01DC01179677
:101A30001C921E92169713968C9181FFECC12AE09E
:101A4000522EF6019381F70193FD859193FF8191C9
:101A50007F01882309F473C0853239F493FD8591A1
:101A600093FF81917F01853229F4B60190E00E94B5
:101A7000240FE7CF912C612C712CFFE1F71508F4AE
:101A800046C08B32C9F1F8F48032C1F1833209F4D7
:101A90003BC0833609F48AC0833709F493C0833589
:101AA00009F0B6C0F801A190B1908F01692D70E0E6
:101AB00076FC02C06FEF7FEFC5010E940E0F4C0154
:101AC000689477F85FC08D32E1F0803351F020EDFB
:101AD000280F2A3048F18E3209F039C0689476F820
:101AE00002C0689470F8F70193FD859193FF81918E
:101AF0007F018111C2CF33C0689471F8689472F885
:101B0000F2CF689473F8EFCF689474F8ECCF77FC59
:101B100026C020ED280F2A3070F476FE05C0959C73
:101B2000200D1124922EDFCF659C200D1124622EF2
:101B3000689475F8D8CF8E3251F476FECFCFD601A7
:101B400016968D919C912F96EFE00C94D10F8C36C8
:101B500019F4689477F8C7CF883609F4C4CF982F62
:101B60009F7D9554933008F094CF0C5F1F4F8FE307
:101B7000898388248394912CAE014F5F5F4F5A0173
:101B8000E89477F873FC05C0862D90E088169906D6
:101B900040F18114910461F5662009F452CFB60139
:101BA00080E290E00E94240F6A94F6CFD8018C91D5
:101BB00089830E5F1F4F88248394912CFE013196F8
:101BC0005F01DECFD801AD90BD908D01692D70E031
:101BD00076FC02C06FEF7FEFC5010E94190F4C0128
:101BE000CFCFB60180E290E00E94240F6A94CCCF60
:101BF000F50177FC859177FE81915F01B60190E058
:101C00000E94240F61106A94F1E08F1A9108C1CFED
:101C1000843619F0893609F081C0F80177FE77C063
:101C200061917191819191918F01272D2F76822E53
:101C300097FF09C090958095709561957F4F8F4F64
:101C40009F4F689487F82AE030E0AE014F5F5F4F06
:101C50005A010E94540F8A19A82EBA2C782C86FE9D
:101C60000CC0E89470F8A91440F484FE05C082FC0E
:101C700003C0782D7E7E772EB92C74FEA5C0FE01A0
:101C8000EA0DF11D8081803309F097C0872D897E90
:101C9000782E73FC0EC070FEA6C09A2CB61418F4F1
:101CA000960C9B18B62C862D8B196B1408F480E0CB
:101CB000B80EB61408F099C06B1874FE98C0B6013F
:101CC00080E390E00E94240F72FE09C088E590E056
:101CD00071FC02C088E790E0B6010E94240FA914AD
:101CE00008F492C0AA94B12C9FEFA91AB90ADE0198
:101CF00011964D01AA0EBB1EF50182915F01B6013E
:101D000090E00E94240F8A149B04B1F745CF6191A3
:101D10007191072E000C880B990B86CF872CE894C5
:101D200084F82AE030E0853769F0572D597F852EF9
:101D3000803771F118F5883571F18F3609F0FFCED3
:101D400028E030E0F80187FE2EC081919191A191A9
:101D5000B1918C879D87AE87BF878F01BE016F5F72
:101D60007F4F5B01AB016C857D858E859F850E94D1
:101D7000540F8A19A82EE89487F86FCF883709F096
:101D8000DECE84FE02C0689482F820E130E0DACF33
:101D9000689484F8F6CF74FE03C0652F6660862EC3
:101DA00020E132E0CFCF81919191AC0160E070E011
:101DB0004C875D876E877F87D0CF72FC02C0B3945B
:101DC00068CFB394B39465CF872D8678882309F4C0
:101DD00060CFF5CFB60180E290E00E94240F83949B
:101DE0008614C0F360CF8B2CFBCF612C66CF872D80
:101DF0008678882309F473CF8BE271FE80E277FC4A
:101E00008DE2B60190E069CFB60180E390E00E94D8
:101E1000240F9A9464CF8FEF9FEF95CEFC0105902D
:101E2000615070400110D8F7809590958E0F9F1FDC
:101E30000895FC016150704001900110D8F7809521
:101E400090958E0F9F1F08950F931F93CF93DF934D
:101E5000182F092FEB018B8181FD09C01FEF0FEFB8
:101E6000812F902FDF91CF911F910F91089582FFC5
:101E700014C02E813F818C819D81281739073CF445
:101E8000E881F981CF0101969983888310838E813F
:101E90009F8101969F838E83E3CFE885F985812F0B
:101EA0000995892BA1F3DACFFA01AA27283051F13D
:101EB000203181F1E8946F936E7F6E5F7F4F8F4F7B
:101EC0009F4FAF4FB1E03ED0B4E03CD0670F781FDA
:101ED000891F9A1FA11D680F791F8A1F911DA11DBF
:101EE0006A0F711D811D911DA11D20D009F46894F8
:101EF0003F912AE0269F11243019305D3193DEF6A0
:101F0000CF010895462F4770405D4193B3E00FD055
:101F1000C9F7F6CF462F4F70405D4A3318F0495D40
:101F200031FD4052419302D0A9F7EACFB4E0A69523
:101F30009795879577956795BA95C9F70097610545
:101F4000710508959B01AC010A2E0694579547959B
:101F500037952795BA95C9F7620F731F841F951F90
:101F6000A01D08952F923F924F925F926F927F92A1
:101F70008F929F92AF92BF92CF92DF92EF92FF9299
:101F80000F931F93CF93DF93CDB7DEB7CA1BDB0B45
:101F90000FB6F894DEBF0FBECDBF09942A883988EA
:101FA00048885F846E847D848C849B84AA84B984F1
:101FB000C884DF80EE80FD800C811B81AA81B981FD
:101FC000CE0FD11D0FB6F894DEBF0FBECDBFED0111
:101FD000089510E0C1E4D0E004C0FE010E942B0B84
:101FE0002196C234D107C9F7F894FFCFF606D6067A
:101FF000DA06DD06E206E706EC06F106F907F90760
:1020000037083708F907F90737083708F907F907D4
:10201000370837083708370837083708F907F90746
:1020200037083708F907F90737083708F907F907B4
:10203000370837083708370837083708F907F90726
:1020400037083708F907F90737083708F907F90794
:10205000370837083708370837083708F907F90706
:1020600037083708F907F90737083708F907F90774
:10207000370837083708370837083708F907F907E6
:1020800037083708F907F90737083708F907F90754
:1020900000005E0220004154415100436F6D6D61AC
:1020A0006E646F20617175656365646F72210D00E8
:1020B0003100202020204C69676172210D00300022
:1020C000202020204465736C69676172210D003FF8
:1020D000002020202050657267756E746172210D9A
:1020E00000202020204F7063616F20696E76616C44
:1020F000696461210D0041544C454400436F6D619A
:102100006E646F204C4544210D00204C696761725C
:10211000204C4544203121200D004465736C6967D3
:102120006172204C4544203121200D0020204F7049
:1021300063616F20696E76616C6964612100436F31
:102140006D6D616E646F20696E76616C69646F217C
:102150000D00000000006F05E203E9039B05F70393
:06216000F00318041B044B
:00000001FF
