:100000000C9440000C94BB000C94EE000C94210165
:100010000C9454010C9487010C9468000C94DE023B
:100020000C9402030C9426030C9484020C943C025E
:100030000C9460020C94A8020C94BD010C94E10194
:100040000C9405020C9468000C9421080C94690827
:100050000C9445080C9488000C9468000C9468007B
:100060000C94B5050C946800AC00DF00120145014A
:100070007801AB012902CC024A03DB058D08E508B3
:1000800011241FBECFEFD8E0DEBFCDBF11E0A0E04E
:10009000B1E0E0EFF3E102C005900D92A831B107A5
:1000A000D9F721E0A8E1B1E001C01D92AC38B20758
:1000B000E1F710E0C0E4D0E004C02197FE010E9407
:1000C0004D09C433D107C9F70E94EA080C94A4096A
:1000D0000C9400000895CB0160E071E00E948A0951
:1000E000892B09F0289A0895E82FF92F1582808529
:1000F0008E7F808780818C7F8B7F80838FE090E0F4
:100100009783868313821482128211820895089540
:100110001F920F920FB60F9211242F933F934F937C
:100120005F936F937F938F939F93AF93BF93EF935F
:10013000FF930E948700FF91EF91BF91AF919F9134
:100140008F917F916F915F914F913F912F910F9080
:100150000FBE0F901F90189588E191E00E947400E7
:100160000895E82FF92F118280818E7F808313827A
:100170001282089508951F920F920FB60F921124C4
:100180002F933F934F935F936F937F938F939F939F
:10019000AF93BF93EF93FF930E94BA00FF91EF914B
:1001A000BF91AF919F918F917F916F915F914F918F
:1001B0003F912F910F900FBE0F901F90189581E2E5
:1001C00091E00E94B1000895E82FF92F11828081FB
:1001D0008E7F808313821282089508951F920F925A
:1001E0000FB60F9211242F933F934F935F936F930A
:1001F0007F938F939F93AF93BF93EF93FF930E944F
:10020000ED00FF91EF91BF91AF919F918F917F9101
:100210006F915F914F913F912F910F900FBE0F9073
:100220001F90189585E291E00E94E4000895E82F60
:10023000F92F118280818E7F80831382128208952C
:1002400008951F920F920FB60F9211242F933F9390
:100250004F935F936F937F938F939F93AF93BF93CE
:10026000EF93FF930E942001FF91EF91BF91AF9117
:100270009F918F917F916F915F914F913F912F91BE
:100280000F900FBE0F901F90189589E291E00E9489
:1002900017010895E82FF92F118280818E7F8083C6
:1002A00013821282089508951F920F920FB60F9233
:1002B00011242F933F934F935F936F937F938F936B
:1002C0009F93AF93BF93EF93FF930E945301FF91CE
:1002D000EF91BF91AF919F918F917F916F915F91BE
:1002E0004F913F912F910F900FBE0F901F90189537
:1002F0008DE291E00E944A010895E82FF92F1182C2
:1003000080818E7F808313821282089508951F92C8
:100310000F920FB60F9211242F933F934F935F9339
:100320006F937F938F939F93AF93BF93EF93FF93BD
:100330000E948601FF91EF91BF91AF919F918F91A4
:100340007F916F915F914F913F912F910F900FBED1
:100350000F901F90189581E391E00E947D01089510
:10036000E82FF92F1182128280818E7F8083148280
:10037000138208950895089508951F920F920FB65D
:100380000F9211242F933F934F935F936F937F931B
:100390008F939F93AF93BF93EF93FF930E94BA0104
:1003A000FF91EF91BF91AF919F918F917F916F914D
:1003B0005F914F913F912F910F900FBE0F901F9023
:1003C00018951F920F920FB60F9211242F933F93FF
:1003D0004F935F936F937F938F939F93AF93BF934D
:1003E000EF93FF930E94BB01FF91EF91BF91AF91FB
:1003F0009F918F917F916F915F914F913F912F913D
:100400000F900FBE0F901F9018951F920F920FB66E
:100410000F9211242F933F934F935F936F937F938A
:100420008F939F93AF93BF93EF93FF930E94BC0171
:10043000FF91EF91BF91AF919F918F917F916F91BC
:100440005F914F913F912F910F900FBE0F901F9092
:10045000189585E391E00E94B0010895E82FF92FE7
:100460001182128280818E7F80831482138208958C
:1004700008950895089508951F920F920FB60F9250
:1004800011242F933F934F935F936F937F938F9399
:100490009F93AF93BF93EF93FF930E943802FF9116
:1004A000EF91BF91AF919F918F917F916F915F91EC
:1004B0004F913F912F910F900FBE0F901F90189565
:1004C0001F920F920FB60F9211242F933F934F93C9
:1004D0005F936F937F938F939F93AF93BF93EF93AC
:1004E000FF930E943902FF91EF91BF91AF919F91CD
:1004F0008F917F916F915F914F913F912F910F90CD
:100500000FBE0F901F9018951F920F920FB60F926B
:1005100011242F933F934F935F936F937F938F9308
:100520009F93AF93BF93EF93FF930E943A02FF9183
:10053000EF91BF91AF919F918F917F916F915F915B
:100540004F913F912F910F900FBE0F901F901895D4
:100550001F920F920FB60F9211242F933F934F9338
:100560005F936F937F938F939F93AF93BF93EF931B
:10057000FF930E943B02FF91EF91BF91AF919F913A
:100580008F917F916F915F914F913F912F910F903C
:100590000FBE0F901F9018958AE391E00E942E02E3
:1005A0000895E82FF92F1182128280818E7F808337
:1005B0001482138208950895089508951F920F924A
:1005C0000FB60F9211242F933F934F935F936F9326
:1005D0007F938F939F93AF93BF93EF93FF930E946B
:1005E000DB02FF91EF91BF91AF919F918F917F912E
:1005F0006F915F914F913F912F910F900FBE0F9090
:100600001F9018951F920F920FB60F9211242F93DF
:100610003F934F935F936F937F938F939F93AF938A
:10062000BF93EF93FF930E94DC02FF91EF91BF9184
:10063000AF919F918F917F916F915F914F913F917A
:100640002F910F900FBE0F901F9018951F920F9231
:100650000FB60F9211242F933F934F935F936F9395
:100660007F938F939F93AF93BF93EF93FF930E94DA
:10067000DD02FF91EF91BF91AF919F918F917F919B
:100680006F915F914F913F912F910F900FBE0F90FF
:100690001F9018958FE391E00E94D102089527E002
:1006A00030E0FC013383228380E0089527E030E0CE
:1006B000FC013383228380E0089527E030E0FC01D1
:1006C0003383228380E00895E82FF92F862F8295C7
:1006D000880F807E95859F71892B858766956695A5
:1006E00066958685807873707295770F707E682B1B
:1006F000672B6687868140FB80F9868384818160D1
:1007000084831086178281E0089585E090E0089543
:10071000FC01878190850895E82FF92F87E091E00B
:1007200091838083128A118A138614868585807E40
:10073000858784818D7F8B7F848384E190E0908B9B
:100740008787108617820895CF92DF92EF92FF92EB
:100750000F931F93CF93DF9300D000D0CDB7DEB7B8
:10076000082F192FD8011F968D919C91CC24CA94E3
:10077000DC2C7601892BB1F484E791E00E94CC084F
:1007800069837A838B839C83C616D706E806F906AD
:10079000E8F0ACEBB0E08C9180FDEECF20E030E0F3
:1007A00081E017C084E791E00E94CC0869837A83D6
:1007B0008B839C83F80187859089C980DA80EB80E0
:1007C000FC80C80ED91EE11CF11CD6CF23E430E01A
:1007D00080E0F801308727830F900F900F900F90E3
:1007E000DF91CF911F910F91FF90EF90DF90CF900D
:1007F0000895E82FF92F84818B7F848388EF90E020
:100800009287818785EA8093BC001086178281E0F9
:100810000895CF93DF93C82FD92FE62FF72F8C8120
:1008200082FB882780F920E430E08823B9F0442354
:1008300099F04E0F5F2F511DDF0121E030E02E1B9C
:100840003F0BE989FA89EA0FFB1FE20FF31F908142
:100850009D93A417B507A9F720E030E038872F83D0
:10086000DF91CF910895AF92BF92CF92DF92EF9236
:10087000FF920F931F93CF93DF93C82FD92FA62EEC
:10088000F42EB22EC02ED12E1C811695117011237C
:1008900009F43EC0EE2021F0C114D10409F448C08F
:1008A000CE010E94A403182F8823B1F1F11046C095
:1008B000E989FA896A2D660F6083E989FA89B1822C
:1008C000EE20A1F0A6014E0D511DF60122E030E010
:1008D0002C193D09C9018E0F9F1FA989BA89A80F3C
:1008E000B91F81918C93E417F507A1F792E09E0D53
:1008F0008B85E0FA87F98B8796959F738C85807C32
:10090000892B8C87CE010E94F90318861F8204C0B0
:1009100084E090E098878F83812FDF91CF911F91A2
:100920000F91FF90EF90DF90CF90BF90AF90089520
:1009300081E190E098878F8310E0EECFE989FA8912
:100940008A2D880F8083E989FA89B1828B858F7718
:100950008B878C85807C81608C87CE010E94F90317
:10096000CE010E94A403811102C0182FD5CFE989BE
:10097000FA896A2D660F616060839B8581E08E0D28
:1009800080FB97F99B8786958F739C85907C892B3C
:100990008C87CE010E94F903CE010E94A40381112D
:1009A00002C0182FB9CF4E2DB601CE010E94090406
:1009B0008111ABCF182FB0CFEF920F931F93CF932E
:1009C000DF93C82FD92F962F8C81817081110AC097
:1009D00021E430E038872F83DF91CF911F910F9171
:1009E000EF9008958D858295869587706E85660F48
:1009F000660F660F682BE22E042F152F292F41E07A
:100A0000CE010E943304882339F318861F82E4CF75
:100A1000EF920F931F93CF93DF93C82FD92F962F69
:100A20008C81817081110AC021E430E038872F83E6
:100A3000DF91CF911F910F91EF9008958D85829551
:100A4000869587706E85660F660F660F682BE22E9F
:100A5000042F152F292F40E0CE010E943304882354
:100A600039F318861F82E4CFE82FF92F8091B9005F
:100A70008C7F883309F46EC0A8F0803509F458C023
:100A80008835C9F58091BB0090914401A189B28954
:100A9000A90FB11D8C9384818460848384E9809341
:100AA000BC000895883121F0F8F0883209F056C072
:100AB000209144019385991F9927991F84858F73ED
:100AC000880F892B281768F50188F289E02D81E0CD
:100AD000820F80934401E20FF11D80818093BB005F
:100AE00085E88093BC000895883011F08031B1F51D
:100AF00010924401DDCF803489F52091440130E02B
:100B00009385991F9927991F84858F73880F892B47
:100B10008150990B28173907CCF485EC8093BC00E1
:100B2000089584818460848384E98093BC0008955F
:100B30009091BB00A189B2898091440121E0280FE6
:100B400020934401A80FB11D9C93D7CF85E88093D3
:100B5000BC00089585EA8093BC0008958091B90097
:100B6000858384E08093BC0008951F920F920FB696
:100B70000F9211242F933F934F935F936F937F9323
:100B80008F939F93AF93BF93EF93FF9385E491E08F
:100B90000E943405FF91EF91BF91AF919F918F918A
:100BA0007F916F915F914F913F912F910F900FBE69
:100BB0000F901F90189585E491E00E948C03089592
:100BC0004F925F926F927F928F929F92AF92BF925D
:100BD000CF92DF92EF92FF920F931F93CF93DF9309
:100BE000CDB7DEB72A970FB6F894DEBF0FBECDBFE4
:100BF00089879A872091C0001091C1008091C2001E
:100C00004091C4005091C500E985FA8593859923E8
:100C1000C1F09130C1F08F7CE985FA8592859130E1
:100C2000A1F09230A1F01B7F897FE985FA8594813C
:100C3000933029F170F4913089F0923081F484601E
:100C40000EC0877FE8CF8860E6CF8063ECCF8062FC
:100C5000EACF973021F41460866001C08260217E63
:100C6000B22EF82FFE73AF2EE985FA850581083084
:100C700040F4E02FF0E0EA55F64F0C944D09866001
:100C8000EECF01E021C06894B1F808E01DC068947F
:100C9000A6F81AC0FA2DF164AF2E02E015C08C73CD
:100CA000806CA82E02E010C08A2D826CA82E02E073
:100CB0000BC08C73816CA82E02E006C09A2D936C39
:100CC000A92E02E001C000E184E791E00E94B4088F
:100CD0006D837E838F839887E985FA8526813781A6
:100CE00040855185A02FB0E00E94620969837A8314
:100CF0008B839C836D817E818F81988529813A8148
:100D00004B815C810E942B0969017A01F1E0CF1AC5
:100D1000D108E108F108B092C0001093C100A09280
:100D2000C200260137012C2D352D462D572D60E0B0
:100D300070E080E090E008E00E946F092F7020933F
:100D4000C500C092C400E985FA851382128281E051
:100D50002A960FB6F894DEBF0FBECDBFDF91CF91BC
:100D60001F910F91FF90EF90DF90CF90BF90AF90C9
:100D70009F908F907F906F905F904F900895E82F95
:100D8000F92F842F952FA62FB72F2081277F20831F
:100D9000803820E79207A105B10509F480C008F06A
:100DA00047C0803C22E19207A105B10509F477C054
:100DB00028F5883027E09207A105B10509F46FC036
:100DC00058F0803629E09207A105B10509F467C003
:100DD00020EB30E080E029C0883522E09207A105B1
:100DE000B10509F45CC0803B24E09207A105B10580
:100DF00009F455C020EB30E080E017C0803428E3D0
:100E00009207A105B10509F44AC081152BE49207A8
:100E1000A105B10509F443C0803825E29207A10578
:100E2000B105E9F120EB30E080E0338322830895BF
:100E3000811522EC920721E0A207B10581F1C8F0EB
:100E4000811524E8920723E0A207B10541F181153D
:100E500028EE920723E0A207B10509F1811524EFDE
:100E6000920721E0A207B105D1F020EB30E080E04D
:100E7000DCCF803C2AED9207A105B10581F08115F8
:100E800021EE9207A105B10551F0811526E99207DF
:100E9000A105B10521F020EB30E080E0C6CF8683CC
:100EA0009783A087B18720E030E081E0BECFA82FF4
:100EB000B92F8C91877F8C93EFEAE60FEA3408F024
:100EC00043C0F0E0E255F64F0C944D09862F837035
:100ED0008130A9F0823009F03FC081E01B968C93ED
:100EE0001B97862F869586958370813051F08230CE
:100EF00041F0882331F02FEF3FEF80E028C080E001
:100F0000EDCF1A968C931A9762956F706730B1F097
:100F100060F06830B9F0693019F587E014968C9369
:100F2000149720E030E081E012C0653049F02FEFE7
:100F30003FEF80E0663059F481E0F0CF82E0EECF01
:100F400080E0ECCF83E0EACF23EB30E080E0139643
:100F50003C932E93129708952FEF3FEF80E0F7CF49
:100F60002FEF3FEF80E0F3CF0F931F93CF93DF93EB
:100F7000C82FD92F122FCE010E94BF06811105C0A4
:100F8000DF91CF911F910F9108958881877F88838A
:100F9000183028F086EB90E09B838A83F1CF1D8385
:100FA0001B821A82602FCE010E945707882341F3CB
:100FB000E8E5F1E085E198E0918780871386128665
:100FC00082E08383158614861B821A82D9CFA82FCC
:100FD000B92FE62FF72F3097D1F010828C9180FF38
:100FE00002C084E080838C9181FF03C08081816096
:100FF00080838C9182FF03C080818260808320E0A7
:1010000030E081E013963C932E931297089521E1EE
:1010100030E080E0F7CFE0ECF0E0808185FFFDCFAD
:101020006093C60080E090E00895462F572F682F08
:1010300080917201909173010E940B0808950895A8
:1010400008951F920F920FB60F9211242F933F9382
:101050004F935F936F937F938F939F93AF93BF93C0
:10106000EF93FF930E941D09FF91EF91BF91AF9104
:101070009F918F917F916F915F914F913F912F91B0
:101080000F900FBE0F901F9018951F920F920FB6E2
:101090000F9211242F933F934F935F936F937F93FE
:1010A0008F939F93AF93BF93EF93FF930E9420087A
:1010B000FF91EF91BF91AF919F918F917F916F9130
:1010C0005F914F913F912F910F900FBE0F901F9006
:1010D00018951F920F920FB60F9211242F933F93E2
:1010E0004F935F936F937F938F939F93AF93BF9330
:1010F000EF93FF930E941F08FF91EF91BF91AF9173
:101100009F918F917F916F915F914F913F912F911F
:101110000F900FBE0F901F9018950F9301E820E0DD
:1011200040E855E260E070E086E691E00E94B40796
:101130000F910895E82FF92F80E094E2A4EFB0E03A
:1011400086839783A087B18780839183A283B383AB
:101150001582148216861786108A118A82898E7FDC
:10116000828B148A138A0895CF93DF9300D000D026
:10117000CDB7DEB7FC0126813781408551852983B3
:101180003A834B835C83CA01B9010F900F900F9093
:101190000F90DF91CF910895CF93DF9300D000D0CF
:1011A000CDB7DEB7E82FF92F82859385A485B58565
:1011B00089839A83AB83BC83BC01CD010F900F90D0
:1011C0000F900F90DF91CF91089584E791E00E94F6
:1011D0009A0808950F92CDB7DEB7209A40E855E2FD
:1011E00060E070E086E691E00E94BF06E1ECF0E08E
:1011F0008081806180838081886080838081806835
:10120000808386E691E00E94E005789402C0109207
:101210008901809189018823E1F380918A018111FC
:10122000F6CFCE0101960E946A006BE871E0CE0114
:1012300001960E946B00289AEACF6AE871E086E680
:1012400091E00E94E7078091C60080938B0181E0C6
:10125000809389010895A1E21A2EAA1BBB1BFD01F0
:101260000DC0AA1FBB1FEE1FFF1FA217B307E40785
:10127000F50720F0A21BB30BE40BF50B661F771FDD
:10128000881F991F1A9469F76095709580959095BD
:101290009B01AC01BD01CF010895EE0FFF1F05902A
:1012A000F491E02D0994A29FB001B39FC001A39FC8
:1012B000700D811D1124911DB29F700D811D11248F
:1012C000911D08950E945309A59F900DB49F900D04
:1012D000A49F800D911D1124089597FD1094002E58
:1012E000083098F00850232F342F452F562F672FA2
:1012F000782F892F912DF4CF159497958795779511
:10130000679557954795379527950A95AAF711241C
:10131000002D0895FB0151915523A9F0BF01DC0177
:101320004D9145174111E1F759F4CD01019000208D
:1013300049F04D9140154111C9F3FB014111EFCF27
:1013400081E090E001970895F894FFCF630643068B
:1013500047064A064F06540659065E0666076607A4
:10136000A407A40766076607A407A407660766071D
:10137000A407A407A407A407A407A4076607660791
:10138000A407A40766076607A407A40766076607FD
:10139000A407A407A407A407A407A4076607660771
:1013A000A407A40766076607A407A40766076607DD
:1013B000A407A407A407A407A407A4076607660751
:1013C000A407A40766076607A407A40766076607BD
:1013D000A407A407A407A407A407A4076607660731
:1013E000A407A40766076607A407A407660766079D
:1013F0004C310000000000DC044F03560308056474
:08140000035D0385038803006E
:00000001FF
